{
  "contractName": "TransportTraceability",
  "abi": [
    {
      "anonymous": false,
      "inputs": [
        {
          "indexed": false,
          "internalType": "string",
          "name": "productId",
          "type": "string"
        },
        {
          "indexed": false,
          "internalType": "uint256",
          "name": "timestamp",
          "type": "uint256"
        },
        {
          "indexed": false,
          "internalType": "string",
          "name": "location",
          "type": "string"
        },
        {
          "indexed": false,
          "internalType": "string",
          "name": "status",
          "type": "string"
        },
        {
          "indexed": false,
          "internalType": "string",
          "name": "temperature",
          "type": "string"
        }
      ],
      "name": "NewTransportEvent",
      "type": "event"
    },
    {
      "inputs": [
        {
          "internalType": "string",
          "name": "",
          "type": "string"
        },
        {
          "internalType": "uint256",
          "name": "",
          "type": "uint256"
        }
      ],
      "name": "productHistory",
      "outputs": [
        {
          "internalType": "uint256",
          "name": "timestamp",
          "type": "uint256"
        },
        {
          "internalType": "string",
          "name": "location",
          "type": "string"
        },
        {
          "internalType": "string",
          "name": "status",
          "type": "string"
        },
        {
          "internalType": "string",
          "name": "temperature",
          "type": "string"
        }
      ],
      "stateMutability": "view",
      "type": "function",
      "constant": true
    },
    {
      "inputs": [
        {
          "internalType": "string",
          "name": "_productId",
          "type": "string"
        },
        {
          "internalType": "string",
          "name": "_location",
          "type": "string"
        },
        {
          "internalType": "string",
          "name": "_status",
          "type": "string"
        },
        {
          "internalType": "string",
          "name": "_temperature",
          "type": "string"
        }
      ],
      "name": "addTransportEvent",
      "outputs": [],
      "stateMutability": "nonpayable",
      "type": "function"
    },
    {
      "inputs": [
        {
          "internalType": "string",
          "name": "_productId",
          "type": "string"
        }
      ],
      "name": "getProductEventCount",
      "outputs": [
        {
          "internalType": "uint256",
          "name": "",
          "type": "uint256"
        }
      ],
      "stateMutability": "view",
      "type": "function",
      "constant": true
    },
    {
      "inputs": [
        {
          "internalType": "string",
          "name": "_productId",
          "type": "string"
        },
        {
          "internalType": "uint256",
          "name": "_index",
          "type": "uint256"
        }
      ],
      "name": "getTransportEvent",
      "outputs": [
        {
          "internalType": "uint256",
          "name": "timestamp",
          "type": "uint256"
        },
        {
          "internalType": "string",
          "name": "location",
          "type": "string"
        },
        {
          "internalType": "string",
          "name": "status",
          "type": "string"
        },
        {
          "internalType": "string",
          "name": "temperature",
          "type": "string"
        }
      ],
      "stateMutability": "view",
      "type": "function",
      "constant": true
    }
  ],
  "bytecode": "0x608060405234801561001057600080fd5b50610a7b806100206000396000f3fe608060405234801561001057600080fd5b506004361061004c5760003560e01c806301970b1114610051578063c71688ed1461007d578063c75a4eb51461009e578063ed71c828146100b1575b600080fd5b61006461005f3660046106a2565b6100c6565b6040516100749493929190610737565b60405180910390f35b61009061008b366004610781565b6102ba565b604051908152602001610074565b6100646100ac3660046106a2565b6102e1565b6100c46100bf3660046107be565b610516565b005b815160208184018101805160008252928201918501919091209190528054829081106100f157600080fd5b90600052602060002090600402016000915091505080600001549080600101805461011b9061086b565b80601f01602080910402602001604051908101604052809291908181526020018280546101479061086b565b80156101945780601f1061016957610100808354040283529160200191610194565b820191906000526020600020905b81548152906001019060200180831161017757829003601f168201915b5050505050908060020180546101a99061086b565b80601f01602080910402602001604051908101604052809291908181526020018280546101d59061086b565b80156102225780601f106101f757610100808354040283529160200191610222565b820191906000526020600020905b81548152906001019060200180831161020557829003601f168201915b5050505050908060030180546102379061086b565b80601f01602080910402602001604051908101604052809291908181526020018280546102639061086b565b80156102b05780601f10610285576101008083540402835291602001916102b0565b820191906000526020600020905b81548152906001019060200180831161029357829003601f168201915b5050505050905084565b600080826040516102cb91906108a5565b9081526040519081900360200190205492915050565b60006060806060600080876040516102f991906108a5565b90815260200160405180910390208681548110610318576103186108c1565b90600052602060002090600402016040518060800160405290816000820154815260200160018201805461034b9061086b565b80601f01602080910402602001604051908101604052809291908181526020018280546103779061086b565b80156103c45780601f10610399576101008083540402835291602001916103c4565b820191906000526020600020905b8154815290600101906020018083116103a757829003601f168201915b505050505081526020016002820180546103dd9061086b565b80601f01602080910402602001604051908101604052809291908181526020018280546104099061086b565b80156104565780601f1061042b57610100808354040283529160200191610456565b820191906000526020600020905b81548152906001019060200180831161043957829003601f168201915b5050505050815260200160038201805461046f9061086b565b80601f016020809104026020016040519081016040528092919081815260200182805461049b9061086b565b80156104e85780601f106104bd576101008083540402835291602001916104e8565b820191906000526020600020905b8154815290600101906020018083116104cb57829003601f168201915b505050919092525050815160208301516040840151606090940151919b909a50929850965090945050505050565b6000604051806080016040528042815260200185815260200184815260200183815250905060008560405161054b91906108a5565b9081526040516020918190038201902080546001808201835560009283529183902084516004909202019081559183015183929182019061058c9082610926565b50604082015160028201906105a19082610926565b50606082015160038201906105b69082610926565b5050507f339831055556a2339fc689ebff0e24040e0b6f4ff05e8fcb4c49645ad6834fd585428686866040516105f09594939291906109e6565b60405180910390a15050505050565b634e487b7160e01b600052604160045260246000fd5b600082601f83011261062657600080fd5b813567ffffffffffffffff80821115610641576106416105ff565b604051601f8301601f19908116603f01168101908282118183101715610669576106696105ff565b8160405283815286602085880101111561068257600080fd5b836020870160208301376000602085830101528094505050505092915050565b600080604083850312156106b557600080fd5b823567ffffffffffffffff8111156106cc57600080fd5b6106d885828601610615565b95602094909401359450505050565b60005b838110156107025781810151838201526020016106ea565b50506000910152565b600081518084526107238160208601602086016106e7565b601f01601f19169290920160200192915050565b848152608060208201526000610750608083018661070b565b8281036040840152610762818661070b565b90508281036060840152610776818561070b565b979650505050505050565b60006020828403121561079357600080fd5b813567ffffffffffffffff8111156107aa57600080fd5b6107b684828501610615565b949350505050565b600080600080608085870312156107d457600080fd5b843567ffffffffffffffff808211156107ec57600080fd5b6107f888838901610615565b9550602087013591508082111561080e57600080fd5b61081a88838901610615565b9450604087013591508082111561083057600080fd5b61083c88838901610615565b9350606087013591508082111561085257600080fd5b5061085f87828801610615565b91505092959194509250565b600181811c9082168061087f57607f821691505b60208210810361089f57634e487b7160e01b600052602260045260246000fd5b50919050565b600082516108b78184602087016106e7565b9190910192915050565b634e487b7160e01b600052603260045260246000fd5b601f82111561092157600081815260208120601f850160051c810160208610156108fe5750805b601f850160051c820191505b8181101561091d5782815560010161090a565b5050505b505050565b815167ffffffffffffffff811115610940576109406105ff565b6109548161094e845461086b565b846108d7565b602080601f83116001811461098957600084156109715750858301515b600019600386901b1c1916600185901b17855561091d565b600085815260208120601f198616915b828110156109b857888601518255948401946001909101908401610999565b50858210156109d65787850151600019600388901b60f8161c191681555b5050505050600190811b01905550565b60a0815260006109f960a083018861070b565b8660208401528281036040840152610a11818761070b565b90508281036060840152610a25818661070b565b90508281036080840152610a39818561070b565b9897505050505050505056fea2646970667358221220bfe55d4ff4ae5c685a385a13680162c2a4caa681c41a064f2a5b144e08d84ebd64736f6c63430008150033",
  "immutableReferences": {},
  "source": "// SPDX-License-Identifier: MIT\r\npragma solidity ^0.8.0;\r\n\r\ncontract TransportTraceability {\r\n\r\n    struct TransportEvent {\r\n        uint256 timestamp;\r\n        string location;\r\n        string status;  // Ejemplo: \"Recogido\", \"En trnsito\", \"Entregado\"\r\n        string temperature;  // Condiciones (opcional)\r\n    }\r\n\r\n    mapping(string => TransportEvent[]) public productHistory;  // Clave es el ID del producto/lote\r\n\r\n    event NewTransportEvent(string productId, uint256 timestamp, string location, string status, string temperature);\r\n\r\n    // Aadir un nuevo evento de transporte para un producto\r\n    function addTransportEvent(\r\n        string memory _productId,\r\n        string memory _location,\r\n        string memory _status,\r\n        string memory _temperature\r\n    ) public {\r\n        TransportEvent memory newEvent = TransportEvent({\r\n            timestamp: block.timestamp,\r\n            location: _location,\r\n            status: _status,\r\n            temperature: _temperature\r\n        });\r\n\r\n        productHistory[_productId].push(newEvent);\r\n\r\n        emit NewTransportEvent(_productId, block.timestamp, _location, _status, _temperature);\r\n    }\r\n\r\n    // Obtener la cantidad de eventos registrados para un producto\r\n    function getProductEventCount(string memory _productId) public view returns (uint256) {\r\n        return productHistory[_productId].length;\r\n    }\r\n\r\n    // Obtener un evento especfico del historial de un producto\r\n    function getTransportEvent(string memory _productId, uint256 _index) public view returns (\r\n        uint256 timestamp, string memory location, string memory status, string memory temperature\r\n    ) {\r\n        TransportEvent memory transportEvent = productHistory[_productId][_index];\r\n        return (transportEvent.timestamp, transportEvent.location, transportEvent.status, transportEvent.temperature);\r\n    }\r\n}\r\n",
  "sourcePath": "C:\\Users\\Sergio\\Documents\\blockchain-transport\\contracts\\TransportTraceability.sol",
  "compiler": {
    "name": "solc",
    "version": "0.8.21+commit.d9974bed.Emscripten.clang"
  },
  "schemaVersion": "3.4.16",
  "updatedAt": "2024-10-12T12:03:09.997Z",
  "networkType": "ethereum",
  "devdoc": {
    "kind": "dev",
    "methods": {},
    "version": 1
  },
  "userdoc": {
    "kind": "user",
    "methods": {},
    "version": 1
  }
}